:020000040800F2
:1000000000500020C90A0008390500083F05000813
:10001000450500084B0500085105000800000000D8
:10002000000000000000000000000000570500086C
:1000300063050008000000006F0500087B0500084C
:10004000110B0008110B0008110B0008110B000820
:10005000110B0008110B0008110B0008110B000810
:10006000110B0008110B0008110B0008110B000800
:10007000110B0008110B0008110B0008110B0008F0
:10008000110B0008110B0008110B0008110B0008E0
:10009000110B0008110B0008110B00088705000860
:1000A000110B0008110B0008110B0008110B0008C0
:1000B000110B0008110B0008110B0008110B0008B0
:1000C000110B0008110B0008110B0008110B0008A0
:1000D000110B000899050008110B0008110B00080E
:1000E000110B0008110B0008110B000800000000A4
:1000F0000000000000000000000000000000000000
:0C01000000000000000000005FF808F1A3
:10010C0010B5054C237833B9044B13B10448AFF345
:10011C0000800123237010BD70000020000000003F
:10012C007040000808B5034B1BB103490348AFF3FB
:10013C00008008BD00000000740000207040000822
:10014C0080B485B000AFF860B9601346FB80FB68E3
:10015C0000229A71FB68BA681A60FB68FA889A8068
:10016C00FB6818461437BD4680BC704780B582B01A
:10017C0000AF786039607B6800221A603A687B684F
:10018C005A603B683C21184601F088FE3B681B68AE
:10019C0000225A627B6818460837BD4680BD0000B5
:1001AC0080B582B000AF78607B685B681B685B6A67
:1001BC001BB21A467B681A607B681B681946074895
:1001CC0003F0A4F87B685B681B6800225A627B68AA
:1001DC001B6818460837BD4680BD00BF8840000824
:1001EC0080B584B000AFF860B9607A603B600F4AAC
:1001FC00FB681A60FB68BA685A60FB687A689A6098
:10020C00FB683A68DA60FB683A8B1A82FB68BA8B37
:10021C005A82FB685A68FB689B681946104601F0C5
:10022C00F9FCFB6818461037BD4680BDE440000859
:10023C0080B582B000AF78607B68D8687B681B8A19
:10024C000122194600F0D9FF7B68D8687B685B8A6D
:10025C000022194600F0D1FF00BF0837BD4680BD13
:10026C0080B483B000AF7860044A7B681A607B6806
:10027C0018460C37BD4680BC704700BFE4400008F0
:10028C0080B582B000AF78607868FFF7E9FF142181
:10029C00786802F057FF7B6818460837BD4680BD6A
:1002AC0080B58CB002AF07F120034FF48072144973
:1002BC001846FFF745FF07F1180312491846FFF7D8
:1002CC0055FF381D10230193082300930C4B042277
:1002DC000D49FFF785FF3B1D1846FFF7A9FF07F1F6
:1002EC0018031846FFF75CFF3A1D07F1200311466F
:1002FC00184602F0DDFE4FF47A7000F067FCEEE772
:10030C00000801409C000020E400002080B588B06B
:10031C0000AF07F1100300221A605A609A60DA608D
:10032C00384B9B69374A43F010039361354B9B69FB
:10033C0003F01003FB60FB68324B9B69314A43F0BE
:10034C00200393612F4B9B6903F02003BB60BB68B8
:10035C002C4B9B692B4A43F004039361294B9B69FB
:10036C0003F004037B607B68264B9B69254A43F0B2
:10037C0008039361234B9B6903F008033B603B68C4
:10038C0000221821204800F038FF00224FF4805141
:10039C001E4800F032FF18233B6101237B610023D0
:1003AC00BB610323FB6107F110031946164800F0EB
:1003BC00B3FD4FF480533B6101237B610023BB6190
:1003CC000323FB6107F110031946104800F0A4FD4C
:1003DC004FF480733B610E4B7B610123BB6107F1D2
:1003EC0010031946084800F097FD00220121172040
:1003FC0000F0E5FC172000F0FEFC00BF2037BD46E6
:10040C0080BD00BF0010024000080140000C0140FC
:10041C000000211080B500AF00F076FB00F00BF867
:10042C00FFF774FF00F0BAFA00F0D6F900F05EF9AD
:10043C00FFF736FFFEE780B590B000AF07F1180369
:10044C0028220021184602F0B3FE3B1D00221A6040
:10045C005A609A60DA601A610123BB614FF48033F1
:10046C00FB6100233B620123BB6202237B634FF4DD
:10047C008033BB634FF4E013FB6307F1180318469A
:10048C0000F004FF0346002B01D000F019F80F23F5
:10049C007B600223BB600023FB604FF480633B61F5
:1004AC0000237B613B1D0221184601F06FF90346C6
:1004BC00002B01D000F004F800BF4037BD4680BDD2
:1004CC0080B400AF72B6FEE780B485B000AF154BB8
:1004DC009B69144A43F001039361124B9B6903F02F
:1004EC000103BB60BB680F4BDB690E4A43F08053C2
:1004FC00D3610C4BDB6903F080537B607B680A4B48
:10050C005B68FB60FB6823F0E063FB60FB6843F017
:10051C000073FB60044AFB68536000BF1437BD4690
:10052C0080BC7047001002400000014080B400AF56
:10053C00FEE780B400AFFEE780B400AFFEE780B406
:10054C0000AFFEE780B400AFFEE780B400AF00BFA1
:10055C00BD4680BC704780B400AF00BFBD4680BCB8
:10056C00704780B400AF00BFBD4680BC704780B5FB
:10057C0000AF00F00FFB00BF80BD80B500AF4FF4A3
:10058C00807000F06BFE00BF80BD000080B500AF36
:10059C00024802F069FA00BF80BD00BF2C010020A8
:1005AC0080B586B000AFF860B9607A6000237B61DB
:1005BC000AE0AFF300800146BB685A1CBA60CAB2AD
:1005CC001A707B6901337B617A697B689A42F0DB34
:1005DC007B6818461837BD4680BD80B586B000AF25
:1005EC00F860B9607A6000237B6109E0BB685A1C33
:1005FC00BA601B78184600F04FFA7B6901337B61B7
:10060C007A697B689A42F1DB7B6818461837BD46DD
:10061C0080BD80B483B000AF78604FF0FF331846D4
:10062C000C37BD4680BC704780B483B000AF786097
:10063C0039603B684FF400525A60002318460C375F
:10064C00BD4680BC704780B483B000AF7860012396
:10065C0018460C37BD4680BC704780B485B000AFDF
:10066C00F860B9607A60002318461437BD4680BC28
:10067C007047000080B586B000AF7860144A154B07
:10068C00D31A7B617B693B61134B1B68002B02D136
:10069C00114B124A1A60104B1A687B6813443A6962
:1006AC009A4207D202F052FD02460C2313604FF01F
:1006BC00FF3309E0084B1B68FB60074B1A687B682B
:1006CC001344054A1360FB6818461837BD4680BDB5
:1006DC0000500020000400008C0000207801002055
:1006EC0080B400AF00BFBD4680BC704780B58EB0F3
:1006FC0000AF07F1280300221A605A609A60DA6092
:10070C0007F1200300221A605A603B1D00221A6078
:10071C005A609A60DA601A615A619A612C4B2D4AC0
:10072C001A602B4B48225A60294B00229A60284BA6
:10073C006422DA60264B00221A61254B00229A6152
:10074C00234801F0BFF90346002B01D0FFF7B8FE98
:10075C004FF48053BB6207F1280319461C4801F083
:10076C00E9FC0346002B01D0FFF7AAFE184801F064
:10077C00F8F90346002B01D0FFF7A2FE00233B62E1
:10078C0000237B6207F120031946114802F02EF872
:10079C000346002B01D0FFF793FE60237B6064239C
:1007AC00BB600023FB6000237B613B1D04221946C8
:1007BC00074801F001FC0346002B01D0FFF780FE37
:1007CC00034800F0B9F800BF3837BD4680BD00BF04
:1007DC00E40000200004004080B58CB000AF07F1AD
:1007EC000C0324220021184602F0E2FC3B1D0022DF
:1007FC001A605A60204B214A1A601F4B00225A6023
:10080C001D4B00229A601C4B4FF6FF72DA601A4B9C
:10081C0000221A61184B00229A610323FB6000230B
:10082C003B6101237B610023BB610023FB6100233F
:10083C003B6201237B620023BB620023FB6207F156
:10084C000C0319460C4801F087FA0346002B01D023
:10085C00FFF736FE00237B600023BB603B1D19466F
:10086C00054801F0C3FF0346002B01D0FFF728FE1B
:10087C0000BF3037BD4680BD9C0000200008004002
:10088C0080B485B000AF78607B681B68094A9342DE
:10089C000BD1094BDB69084A43F00203D361064BC9
:1008AC00DB6903F00203FB60FB6800BF1437BD4635
:1008BC0080BC7047000400400010024080B588B036
:1008CC0000AF786007F1100300221A605A609A603A
:1008DC00DA607B681B68154A934223D1144BDB69A1
:1008EC00134A43F00403D361114BDB6903F0040397
:1008FC00FB60FB680E4B9B690D4A43F00803936148
:10090C000B4B9B6903F00803BB60BB68C0233B61C6
:10091C0000237B610023BB6107F1100319460548D6
:10092C0000F0FAFA00BF2037BD4680BD0008004039
:10093C0000100240000C014080B588B000AF786018
:10094C0007F1100300221A605A609A60DA607B6823
:10095C001B680F4A934217D10E4B9B690D4A43F00B
:10096C00040393610B4B9B6903F00403FB60FB686E
:10097C0080233B6102237B610223FB6107F110039F
:10098C001946054800F0C8FA00BF2037BD4680BDA7
:10099C0000040040001002400008014080B500AF88
:1009AC00114B124A1A60104B4FF4E1325A600E4B45
:1009BC0000229A600C4B0022DA600B4B00221A6169
:1009CC00094B0C225A61084B00229A61064B0022FB
:1009DC00DA61054801F068FF0346002B01D0FFF7F0
:1009EC006FFD00BF80BD00BF2C010020003801400E
:1009FC0080B588B000AF786007F1100300221A6050
:100A0C005A609A60DA607B681B68204A934239D13D
:100A1C001F4B9B691E4A43F4804393611C4B9B699B
:100A2C0003F48043FB60FB68194B9B69184A43F045
:100A3C0004039361164B9B6903F00403BB60BB6812
:100A4C004FF400733B6102237B610323FB6107F1CD
:100A5C00100319460F4800F05FFA4FF480633B61B6
:100A6C0000237B610023BB6107F110031946094881
:100A7C0000F052FA00220021252000F0A0F92520D8
:100A8C0000F0B9F900BF2037BD4680BD00380140E9
:100A9C00001002400008014080B582B000AF7860C1
:100AAC00391D4FF6FF730122034801F04AFF7B68A2
:100ABC0018460837BD4680BD2C010020002103E0FC
:100ACC000B4B5B58435004310A480B4B42189A426B
:100ADC00F6D30A4A02E0002342F8043B084B9A4240
:100AEC00F9D3FFF7FDFD02F037FBFFF793FC7047DE
:100AFC00A4410008000000207000002070000020BD
:100B0C0074010020FEE7000080B500AF084B1B68A5
:100B1C00074A43F010031360032000F045F900204E
:100B2C0000F008F8FFF7D0FC0023184680BD00BF8A
:100B3C000020024080B582B000AF7860124B1A687A
:100B4C00124B1B7819464FF47A73B3FBF1F3B2FBDB
:100B5C00F3F3184600F05DF90346002B01D0012396
:100B6C000EE07B680F2B0AD8002279684FF0FF301B
:100B7C0000F025F9064A7B681360002300E001238E
:100B8C0018460837BD4680BD000000200800002034
:100B9C000400002080B400AF054B1B781A46054BAF
:100BAC001B681344034A136000BFBD4680BC7047EA
:100BBC00080000206C01002080B400AF024B1B68C1
:100BCC001846BD4680BC70476C01002080B584B0CF
:100BDC0000AF7860FFF7F0FFB8607B68FB60FB68E4
:100BEC00B3F1FF3F05D0094B1B781A46FB68134441
:100BFC00FB6000BFFFF7E0FF0246BB68D31AFA6840
:100C0C009A42F7D800BF1037BD4680BD08000020BF
:100C1C0080B485B000AF78607B6803F00703FB609D
:100C2C000C4BDB68BB60BA684FF6FF031340BB602C
:100C3C00FB681A02BB68134343F0BF6343F40033F1
:100C4C00BB60044ABB68D36000BF1437BD4680BC90
:100C5C00704700BF00ED00E080B400AF044BDB68D0
:100C6C001B0A03F007031846BD4680BC704700BF43
:100C7C0000ED00E080B483B000AF0346FB7197F940
:100C8C000730002B0BDBFB7903F01F02064997F9A9
:100C9C0007305B09012000FA02F241F8232000BF63
:100CAC000C37BD4680BC704700E100E080B483B0D7
:100CBC0000AF03463960FB7197F90730002B0ADB54
:100CCC003B68DAB20C4997F907301201D2B20B44E7
:100CDC0083F800230AE03B68DAB20849FB7903F099
:100CEC000F03043B1201D2B20B441A7600BF0C372F
:100CFC00BD4680BC704700BF00E100E000ED00E0A5
:100D0C0080B489B000AFF860B9607A60FB6803F01A
:100D1C000703FB61FB69C3F10703042B28BF042302
:100D2C00BB61FB690433062B02D9FB69033B00E072
:100D3C0000237B614FF0FF32BB6902FA03F3DA4305
:100D4C00BB681A407B699A404FF0FF317B6901FA0E
:100D5C0003F3D9437B680B40134318462437BD4635
:100D6C0080BC704780B582B000AF78607B68013B77
:100D7C00B3F1807F01D301230FE00A4A7B68013B6A
:100D8C0053600F214FF0FF30FFF790FF054B00220F
:100D9C009A60044B07221A60002318460837BD4698
:100DAC0080BD00BF10E000E080B582B000AF78607D
:100DBC007868FFF72DFF00BF0837BD4680BD80B5B2
:100DCC0086B000AF0346B9607A60FB7300237B6189
:100DDC00FFF742FF78617A68B9687869FFF790FF8E
:100DEC00024697F90F3011461846FFF75FFF00BF18
:100DFC001837BD4680BD80B582B000AF0346FB718D
:100E0C0097F907301846FFF735FF00BF0837BD4686
:100E1C0080BD80B582B000AF78607868FFF7A2FF24
:100E2C00034618460837BD4680BD000080B584B027
:100E3C0000AF78600023FB737B6893F82130022BA2
:100E4C0005D07B6804229A630123FB7351E07B6815
:100E5C001B681A687B681B6822F00E021A607B689C
:100E6C001B681A687B681B6822F001021A607B6899
:100E7C001B68224A934229D07B681B68204A934204
:100E8C0022D07B681B681F4A93421AD07B681B6870
:100E9C001D4A934212D07B681B681C4A93420AD0AD
:100EAC007B681B681A4A934202D14FF480130EE000
:100EBC004FF080730BE04FF4803308E04FF4805315
:100ECC0005E04FF4807302E0102300E00123114A87
:100EDC0053607B68012283F821207B68002283F811
:100EEC0020207B685B6B002B03D07B685B6B786886
:100EFC009847FB7B18461037BD4680BD0800024062
:100F0C001C000240300002404400024058000240E5
:100F1C006C0002400000024080B48BB000AF7860DF
:100F2C00396000237B6200233B6227E101227B6A4C
:100F3C0002FA03F3FB613B681B68FA691340BB615F
:100F4C00BA69FB699A4240F016813B685B68122BC8
:100F5C0034D0122B0DD8022B2BD0022B04D8002B03
:100F6C0031D0012B1CD048E0032B43D0112B1BD0CC
:100F7C0043E0894A934226D0874A934206D8874A4F
:100F8C00934220D0864A93421DD036E0854A934244
:100F9C0019D0854A934216D0844A934213D02CE040
:100FAC003B68DB683B6228E03B68DB6804333B62F0
:100FBC0023E03B68DB6808333B621EE03B68DB6880
:100FCC000C333B6219E03B689B68002B02D1042375
:100FDC003B6212E03B689B68012B05D108233B6206
:100FEC007B68FA691A6108E008233B627B68FA693E
:100FFC005A6102E000233B6200BFBB69FF2B01D8A2
:10100C007B6801E07B6804337B61BB69FF2B02D8F2
:10101C007B6A9B0002E07B6A083B9B003B617B691F
:10102C001A680F213B6901FA03F3DB431A40396A52
:10103C003B6901FA03F31A437B691A603B685B68EE
:10104C0003F08053002B00F09680594B9B69584A53
:10105C0043F001039361564B9B6903F00103BB60A2
:10106C00BB68544A7B6A9B08023352F82330FB60FE
:10107C007B6A03F003039B000F2202FA03F3DB43AA
:10108C00FA681340FB607B684B4A934213D07B6831
:10109C004A4A93420DD07B68494A934207D07B68F9
:1010AC00484A934201D1032306E0042304E00223BF
:1010BC0002E0012300E000237A6A02F003029200AE
:1010CC009340FA681343FB603A497B6A9B080233EE
:1010DC00FA6841F823203B685B6803F48033002BEB
:1010EC0006D0394B1A683849BB6913430B6006E0CC
:1010FC00354B1A68BB69DB43334913400B603B68C3
:10110C005B6803F40033002B06D02F4B5A682E4932
:10111C00BB6913434B6006E02B4B5A68BB69DB433E
:10112C00294913404B603B685B6803F48013002B28
:10113C0006D0254B9A682449BB6913438B6006E0A3
:10114C00214B9A68BB69DB431F4913408B603B689A
:10115C005B6803F40013002B06D01B4BDA681A49AA
:10116C00BB691343CB6006E0174BDA68BB69DB4302
:10117C0015491340CB607B6A01337B623B681A686C
:10118C007B6A22FA03F3002B7FF4D0AE00BF2C371E
:10119C00BD4680BC704700BF00002110000011103C
:1011AC00000012100000311000003210000022105C
:1011BC00001002400000014000080140000C0140FA
:1011CC0000100140001401400004014080B485B0BF
:1011DC0000AF78600B467B807B689A687B881340F5
:1011EC00002B02D00123FB7301E00023FB73FB7B7C
:1011FC0018461437BD4680BC704780B483B000AF2E
:10120C0078600B467B8013467B707B78002B03D079
:10121C007A887B681A6103E07B881A047B681A6100
:10122C0000BF0C37BD4680BC704780B485B000AFA2
:10123C0078600B467B807B68DB68FB607A88FB6898
:10124C0013401A04FB68D9437B880B401A437B6814
:10125C001A6100BF1437BD4680BC704780B582B0A0
:10126C0000AF0346FB80084B5A69FB881340002BE8
:10127C0006D0054AFB885361FB88184601F036FFFF
:10128C0000BF0837BD4680BD0004014080B586B064
:10129C0000AF78607B68002B01D101236CE27B6886
:1012AC001B6803F00103002B00F08780924B5B68F6
:1012BC0003F00C03042B0CD08F4B5B6803F00C0376
:1012CC00082B12D18C4B5B6803F48033B3F5803F51
:1012DC000BD1894B1B6803F40033002B6CD07B685B
:1012EC005B68002B68D1012346E27B685B68B3F531
:1012FC00803F06D1804B1B687F4A43F480331360D8
:10130C002EE07B685B68002B0CD17B4B1B687A4A08
:10131C0023F480331360784B1B68774A23F48023C3
:10132C0013601DE07B685B68B3F5A02F0CD1724B8A
:10133C001B68714A43F4802313606F4B1B686E4A21
:10134C0043F4803313600BE06B4B1B686A4A23F445
:10135C0080331360684B1B68674A23F48023136047
:10136C007B685B68002B13D0FFF726FC386108E024
:10137C00FFF722FC02463B69D31A642B01D90323E5
:10138C00FAE15D4B1B6803F40033002BF0D014E042
:10139C00FFF712FC386108E0FFF70EFC02463B69D0
:1013AC00D31A642B01D90323E6E1534B1B6803F4D6
:1013BC000033002BF0D100E000BF7B681B6803F00A
:1013CC000203002B63D04C4B5B6803F00C03002B27
:1013DC000BD0494B5B6803F00C03082B1CD1464B1C
:1013EC005B6803F48033002B16D1434B1B6803F06E
:1013FC000203002B05D07B681B69012B01D0012354
:10140C00BAE13D4B1B6823F0F8027B685B69DB009B
:10141C00394913430B603AE07B681B69002B20D0E1
:10142C00364B01221A60FFF7C7FB386108E0FFF763
:10143C00C3FB02463B69D31A022B01D903239BE160
:10144C002D4B1B6803F00203002BF0D02A4B1B68BA
:10145C0023F0F8027B685B69DB00274913430B60C0
:10146C0015E0264B00221A60FFF7A6FB386108E056
:10147C00FFF7A2FB02463B69D31A022B01D90323C7
:10148C007AE11D4B1B6803F00203002BF0D17B6843
:10149C001B6803F00803002B3AD07B689B69002B78
:1014AC0019D0174B01221A60FFF786FB386108E050
:1014BC00FFF782FB02463B69D31A022B01D90323A7
:1014CC005AE10D4B5B6A03F00203002BF0D00120B4
:1014DC0000F0DAFA1CE00A4B00221A60FFF76CFBF2
:1014EC0038610FE0FFF768FB02463B69D31A022B09
:1014FC0008D9032340E100BF001002400000424223
:10150C00800442429E4B5B6A03F00203002BE9D13C
:10151C007B681B6803F00403002B00F0A6800023FB
:10152C00FB75974BDB6903F08053002B0DD1944B6B
:10153C00DB69934A43F08053D361914BDB6903F031
:10154C008053BB60BB680123FB758E4B1B6803F497
:10155C008073002B18D18B4B1B688A4A43F4807321
:10156C001360FFF729FB386108E0FFF725FB024603
:10157C003B69D31A642B01D90323FDE0814B1B6813
:10158C0003F48073002BF0D07B68DB68012B06D151
:10159C007B4B1B6A7A4A43F0010313622DE07B6894
:1015AC00DB68002B0CD1764B1B6A754A23F00103C8
:1015BC001362734B1B6A724A23F0040313621CE020
:1015CC007B68DB68052B0CD16D4B1B6A6C4A43F0B6
:1015DC00040313626A4B1B6A694A43F001031362EA
:1015EC000BE0674B1B6A664A23F001031362644BE2
:1015FC001B6A634A23F0040313627B68DB68002BCD
:10160C0015D0FFF7D9FA38610AE0FFF7D5FA024690
:10161C003B69D31A41F28832934201D90323ABE0E0
:10162C00574B1B6A03F00203002BEED014E0FFF7BC
:10163C00C3FA38610AE0FFF7BFFA02463B69D31AD6
:10164C0041F28832934201D9032395E04C4B1B6A3B
:10165C0003F00203002BEED1FB7D012B05D1484B8F
:10166C00DB69474A23F08053D3617B68DB69002B2D
:10167C0000F08180424B5B6803F00C03082B61D0B7
:10168C007B68DB69022B46D13F4B00221A60FFF7C7
:10169C0093FA386108E0FFF78FFA02463B69D31AD8
:1016AC00022B01D9032367E0354B1B6803F0007351
:1016BC00002BF0D17B681B6AB3F5803F08D1304B0F
:1016CC005B6823F400327B689B682D4913434B60A5
:1016DC002B4B5B6823F474127B68196A7B685B6A1A
:1016EC000B43274913434B60274B01221A60FFF72A
:1016FC0063FA386108E0FFF75FFA02463B69D31AD8
:10170C00022B01D9032337E01D4B1B6803F0007338
:10171C00002BF0D02FE01C4B00221A60FFF74CFA84
:10172C00386108E0FFF748FA02463B69D31A022BEE
:10173C0001D9032320E0124B1B6803F00073002B2C
:10174C00F0D118E07B68DB69012B01D1012313E098
:10175C000B4B5B68FB60FB6803F480327B681B6A95
:10176C009A4206D1FB6803F470127B685B6A9A425A
:10177C0001D0012300E0002318461837BD4680BD78
:10178C0000100240007000406000424280B584B0FE
:10179C0000AF786039607B68002B01D10123D0E069
:1017AC006A4B1B6803F007033A689A4210D9674BDF
:1017BC001B6823F0070265493B6813430B60634BBE
:1017CC001B6803F007033A689A4201D00123B8E082
:1017DC007B681B6803F00203002B20D07B681B681E
:1017EC0003F00403002B05D0594B5B68584A43F4B3
:1017FC00E06353607B681B6803F00803002B05D083
:10180C00534B5B68524A43F460535360504B5B68D4
:10181C0023F0F0027B689B684D4913434B607B6857
:10182C001B6803F00103002B40D07B685B68012B25
:10183C0007D1474B1B6803F40033002B15D1012350
:10184C007FE07B685B68022B07D1414B1B6803F080
:10185C000073002B09D1012373E03D4B1B6803F08F
:10186C000203002B01D101236BE0394B5B6823F0A1
:10187C0003027B685B68364913434B60FFF79CF9A6
:10188C00F8600AE0FFF798F90246FB68D31A41F2B8
:10189C008832934201D9032353E02D4B5B6803F04C
:1018AC000C027B685B689B009A42EBD1274B1B6850
:1018BC0003F007033A689A4210D2244B1B6823F0BA
:1018CC00070222493B6813430B60204B1B6803F053
:1018DC0007033A689A4201D0012332E07B681B6807
:1018EC0003F00403002B08D0194B5B6823F4E0626F
:1018FC007B68DB68164913434B607B681B6803F0FD
:10190C000803002B09D0124B5B6823F460527B68F0
:10191C001B69DB000E4913434B6000F021F80146B4
:10192C000B4B5B681B0903F00F030A4AD35C21FACB
:10193C0003F3094A1360094B1B681846FFF7FAF8C2
:10194C00002318461037BD4680BD00BF0020024062
:10195C0000100240EC4000080000002004000020B1
:10196C0090B48AB000AF2A4B3C1D0FCB84E80F001B
:10197C00284B1B883B800023FB610023BB610023A9
:10198C007B6200237B6100233B62234B5B68FB6122
:10199C00FB6903F00C03042B02D0082B03D02DE0C1
:1019AC001E4B3B622DE0FB699B0C03F00F0307F110
:1019BC002802134413F8243C7B61FB6903F4803345
:1019CC00002B13D0144B5B685B0C03F0010307F185
:1019DC002802134413F8283CBB617B690F4A02FBB5
:1019EC0003F2BB69B2FBF3F37B6204E07B690C4A44
:1019FC0002FB03F37B627B6A3B6202E0074B3B62B8
:101A0C0000BF3B6A18462837BD4690BC704700BFE4
:101A1C00B8400008C84000080010024000127A00CC
:101A2C0000093D0080B400AF024B1B681846BD4650
:101A3C0080BC70470000002080B500AFFFF7F2FFBC
:101A4C000146054B5B681B0A03F00703034AD35C92
:101A5C0021FA03F3184680BD00100240FC40000838
:101A6C0080B500AFFFF7DEFF0146054B5B68DB0A74
:101A7C0003F00703034AD35C21FA03F3184680BD35
:101A8C0000100240FC40000880B485B000AF7860C4
:101A9C000A4B1B680A4AA2FB03235B0A7A6802FB07
:101AAC0003F3FB6000BFFB685A1EFA60002BF9D1F0
:101ABC0000BF1437BD4680BC704700BF000000203B
:101ACC00D34D621080B582B000AF78607B68002B7C
:101ADC0001D1012341E07B6893F83D30DBB2002B50
:101AEC0006D17B68002283F83C207868FEF7C8FE9C
:101AFC007B68022283F83D207B681A687B6804337C
:101B0C001946104600F0CEFB7B68012283F8462074
:101B1C007B68012283F83E207B68012283F83F20FA
:101B2C007B68012283F840207B68012283F84120E6
:101B3C007B68012283F842207B68012283F84320D2
:101B4C007B68012283F844207B68012283F84520BE
:101B5C007B68012283F83D20002318460837BD46D8
:101B6C0080BD80B582B000AF78607B68002B01D15E
:101B7C00012341E07B6893F83D30DBB2002B06D1AA
:101B8C007B68002283F83C20786800F039F87B6889
:101B9C00022283F83D207B681A687B68043319465F
:101BAC00104600F07FFB7B68012283F846207B689F
:101BBC00012283F83E207B68012283F83F207B685A
:101BCC00012283F840207B68012283F841207B6846
:101BDC00012283F842207B68012283F843207B6832
:101BEC00012283F844207B68012283F845207B681E
:101BFC00012283F83D20002318460837BD4680BDDE
:101C0C0080B483B000AF786000BF0C37BD4680BC99
:101C1C007047000080B584B000AF786039603B68D5
:101C2C00002B09D17B6893F83E30DBB2012B14BF3B
:101C3C0001230023DBB222E03B68042B09D17B6833
:101C4C0093F83F30DBB2012B14BF01230023DBB22E
:101C5C0015E03B68082B09D17B6893F84030DBB268
:101C6C00012B14BF01230023DBB208E07B6893F83F
:101C7C004130DBB2012B14BF01230023DBB2002B5C
:101C8C0001D001235EE03B68002B04D17B6802226B
:101C9C0083F83E2013E03B68042B04D17B680222BE
:101CAC0083F83F200BE03B68082B04D17B680222B1
:101CBC0083F8402003E07B68022283F841207B6894
:101CCC001B6801223968184600F06CFD7B681B68A4
:101CDC001E4A934207D17B681B685A6C7B681B6851
:101CEC0042F400425A647B681B68184A93420ED037
:101CFC007B681B68B3F1804F09D07B681B68144A62
:101D0C00934204D07B681B68124A934211D17B68C2
:101D1C001B689B6803F00703FB60FB68062B10D065
:101D2C007B681B681A687B681B6842F001021A60AA
:101D3C0007E07B681B681A687B681B6842F001022D
:101D4C001A60002318461037BD4680BD002C014098
:101D5C00000400400008004080B586B000AF7860F9
:101D6C0039607B68002B01D1012393E07B6893F8E9
:101D7C003D30DBB2002B06D17B68002283F83C207F
:101D8C007868FEF79BFD7B68022283F83D207B6818
:101D9C001B689B687A68126823F4804323F007035E
:101DAC0093607B681A687B6804331946104600F010
:101DBC0079FA7B681B689B687B617B681B689B69F5
:101DCC003B617B681B681B6AFB603B681B687A691C
:101DDC0013437B613B6923F4407323F003033B61A2
:101DEC003B689A683B689B691B0213433A6913432F
:101DFC003B613B6923F4406323F00C033B613B697B
:101E0C0023F4704323F0F0033B613B68DA683B68D2
:101E1C00DB691B0213433A6913433B613B681B6943
:101E2C001A013B681B6A1B0313433A6913433B615A
:101E3C00FB6823F02203FB603B685A683B685B69D4
:101E4C001B011343FA681343FB607B681B687A69B8
:101E5C009A607B681B683A699A617B681B68FA68B0
:101E6C001A627B68012283F846207B68012283F882
:101E7C003E207B68012283F83F207B68012283F897
:101E8C0042207B68012283F843207B68012283F87F
:101E9C003D20002318461837BD4680BD80B584B060
:101EAC0000AF786039607B6893F83E30FB737B68D9
:101EBC0093F83F30BB737B6893F842307B737B683D
:101ECC0093F843303B733B68002B10D1FB7B012B09
:101EDC0002D17B7B012B01D0012368E07B680222BD
:101EEC0083F83E207B68022283F8422031E03B6875
:101EFC00042B10D1BB7B012B02D13B7B012B01D0DE
:101F0C00012354E07B68022283F83F207B68022285
:101F1C0083F843201DE0FB7B012B08D1BB7B012BFD
:101F2C0005D17B7B012B02D13B7B012B01D0012303
:101F3C003DE07B68022283F83E207B68022283F816
:101F4C003F207B68022283F842207B68022283F8C0
:101F5C0043203B68002B02D0042B08D00FE07B6899
:101F6C001B6801220021184600F01CFC16E07B685F
:101F7C001B6801220421184600F014FC0EE07B685B
:101F8C001B6801220021184600F00CFC7B681B68C2
:101F9C0001220421184600F005FC00BF7B681B6879
:101FAC001A687B681B6842F001021A60002318460D
:101FBC001037BD4680BD000080B584B000AFF8601E
:101FCC00B9607A60FB6893F83C30012B01D1022395
:101FDC00ACE0FB68012283F83C207B680C2B00F200
:101FEC009F8001A252F823F0292000082D2100081F
:101FFC002D2100082D210008692000082D21000842
:10200C002D2100082D210008AB2000082D210008EF
:10201C002D2100082D210008EB200008FB681B680F
:10202C00B968184600F0A0F9FB681B689A69FB6850
:10203C001B6842F008029A61FB681B689A69FB688E
:10204C001B6822F004029A61FB681B689969BB68E3
:10205C001A69FB681B680A439A6162E0FB681B689B
:10206C00B968184600F0E6F9FB681B689A69FB68CA
:10207C001B6842F400629A61FB681B689A69FB68F2
:10208C001B6822F480629A61FB681B689969BB68C3
:10209C001B691A02FB681B680A439A6141E0FB68E2
:1020AC001B68B968184600F02FFAFB681B68DA69E0
:1020BC00FB681B6842F00802DA61FB681B68DA698E
:1020CC00FB681B6822F00402DA61FB681B68D969A3
:1020DC00BB681A69FB681B680A43DA6121E0FB687C
:1020EC001B68B968184600F079FAFB681B68DA6956
:1020FC00FB681B6842F40062DA61FB681B68DA69F2
:10210C00FB681B6822F48062DA61FB681B68D96982
:10211C00BB681B691A02FB681B680A43DA6100E0A2
:10212C0000BFFB68002283F83C20002318461037C0
:10213C00BD4680BD80B584B000AF786039607B68E7
:10214C0093F83C30012B01D10223A6E07B680122DD
:10215C0083F83C207B68022283F83D207B681B6857
:10216C009B68FB60FB6823F07703FB60FB6823F440
:10217C007F43FB607B681B68FA689A603B681B684E
:10218C00402B67D0402B0BD8102B73D0102B02D8C0
:10219C00002B6FD078E0202B6CD0302B6AD073E002
:1021AC00702B0DD0702B04D8502B33D0602B41D01A
:1021BC006AE0B3F5805F66D0B3F5005F17D063E0DB
:1021CC007B6818683B6899683B685A683B68DB68B1
:1021DC0000F0C9FA7B681B689B68FB60FB6843F0E6
:1021EC007703FB607B681B68FA689A604CE07B683D
:1021FC0018683B6899683B685A683B68DB6800F074
:10220C00B2FA7B681B689A687B681B6842F4804250
:10221C009A6039E07B6818683B6859683B68DB68F2
:10222C001A4600F029FA7B681B685021184600F00A
:10223C0080FA29E07B6818683B6859683B68DB6862
:10224C001A4600F047FA7B681B686021184600F0BC
:10225C0070FA19E07B6818683B6859683B68DB6862
:10226C001A4600F009FA7B681B684021184600F0FA
:10227C0060FA09E07B681A683B681B6819461046CF
:10228C0000F057FA00E000BF7B68012283F83D2084
:10229C007B68002283F83C20002318461037BD468B
:1022AC0080BD000080B485B000AF786039607B6879
:1022BC001B68FB607B68294A93420BD07B68B3F1A7
:1022CC00804F07D07B68264A934203D07B68254A0F
:1022DC00934208D1FB6823F07003FB603B685B689A
:1022EC00FA681343FB607B681C4A93420BD07B68F3
:1022FC00B3F1804F07D07B68194A934203D07B68B7
:10230C00184A934208D1FB6823F44073FB603B6886
:10231C00DB68FA681343FB60FB6823F080023B68C0
:10232C005B691343FB607B68FA681A603B689A68C8
:10233C007B68DA623B681A687B689A627B68074A3A
:10234C00934203D13B681A697B681A637B6801224C
:10235C005A6100BF1437BD4680BC7047002C014049
:10236C00000400400008004080B487B000AF7860E3
:10237C0039607B681B6A23F001027B681A627B68F8
:10238C001B6A7B617B685B683B617B689B69FB605C
:10239C00FB6823F07003FB60FB6823F00303FB6016
:1023AC003B681B68FA681343FB607B6923F00203EC
:1023BC007B613B689B687A6913437B617B681C4A31
:1023CC0093420CD17B6923F008037B613B68DB688B
:1023DC007A6913437B617B6923F004037B617B681F
:1023EC00134A934211D13B6923F480733B613B69DF
:1023FC0023F400733B613B685B693A6913433B61AF
:10240C003B689B693A6913433B617B683A695A6044
:10241C007B68FA689A613B685A687B685A637B6888
:10242C007A691A6200BF1C37BD4680BC704700BF7A
:10243C00002C014080B487B000AF786039607B68B5
:10244C001B6A23F010027B681A627B681B6A7B6133
:10245C007B685B683B617B689B69FB60FB6823F472
:10246C00E043FB60FB6823F44073FB603B681B6834
:10247C001B02FA681343FB607B6923F020037B612A
:10248C003B689B681B017A6913437B617B681D4A1F
:10249C0093420DD17B6923F080037B613B68DB6841
:1024AC001B017A6913437B617B6923F040037B61D9
:1024BC007B68144A934213D13B6923F480633B61DC
:1024CC003B6923F400633B613B685B699B003A69A1
:1024DC0013433B613B689B699B003A6913433B6127
:1024EC007B683A695A607B68FA689A613B685A68FB
:1024FC007B689A637B687A691A6200BF1C37BD4699
:10250C0080BC7047002C014080B487B000AF78606D
:10251C0039607B681B6A23F480727B681A627B6863
:10252C001B6A7B617B685B683B617B68DB69FB607A
:10253C00FB6823F07003FB60FB6823F00303FB6074
:10254C003B681B68FA681343FB607B6923F40073D8
:10255C007B613B689B681B027A6913437B617B68D8
:10256C001D4A93420DD17B6923F400637B613B6868
:10257C00DB681B027A6913437B617B6923F48063FC
:10258C007B617B68144A934213D13B6923F48053DB
:10259C003B613B6923F400533B613B685B691B0166
:1025AC003A6913433B613B689B691B013A691343CE
:1025BC003B617B683A695A607B68FA68DA613B6810
:1025CC005A687B68DA637B687A691A6200BF1C37C9
:1025DC00BD4680BC704700BF002C014080B487B062
:1025EC0000AF786039607B681B6A23F480527B688B
:1025FC001A627B681B6A3B617B685B687B617B68EA
:10260C00DB69FB60FB6823F4E043FB60FB6823F4AD
:10261C004073FB603B681B681B02FA681343FB604A
:10262C003B6923F400533B613B689B681B033A698D
:10263C0013433B617B680F4A934209D17B6923F4B6
:10264C0080437B613B685B699B017A6913437B61C7
:10265C007B687A695A607B68FA68DA613B685A6809
:10266C007B681A647B683A691A6200BF1C37BD46E6
:10267C0080BC7047002C014080B487B000AFF8607C
:10268C00B9607A60FB681B6A7B61FB681B6A23F08C
:10269C000102FB681A62FB689B693B613B6923F092
:1026AC00F0033B617B681B013A6913433B617B6917
:1026BC0023F00A037B617A69BB6813437B61FB6877
:1026CC003A699A61FB687A691A6200BF1C37BD4689
:1026DC0080BC704780B487B000AFF860B9607A6096
:1026EC00FB681B6A23F01002FB681A62FB689B698B
:1026FC007B61FB681B6A3B617B6923F470437B61E4
:10270C007B681B037A6913437B613B6923F0A0034D
:10271C003B61BB681B013A6913433B61FB687A69F7
:10272C009A61FB683A691A6200BF1C37BD4680BCCF
:10273C00704780B485B000AF786039607B689B6867
:10274C00FB60FB6823F07003FB603A68FB68134383
:10275C0043F00703FB607B68FA689A6000BF14378C
:10276C00BD4680BC704780B487B000AFF860B960DC
:10277C007A603B60FB689B687B617B6923F47F43D9
:10278C007B613B681A027B681A43BB6813437A6906
:10279C0013437B61FB687A699A6000BF1C37BD46A6
:1027AC0080BC704780B487B000AFF860B9607A60C5
:1027BC00BB6803F01F03012202FA03F37B61FB6881
:1027CC001A6A7B69DB431A40FB681A62FB681A6A57
:1027DC00BB6803F01F03796801FA03F31A43FB6823
:1027EC001A6200BF1C37BD4680BC704780B485B0F0
:1027FC0000AF786039607B6893F83C30012B01D1D5
:10280C00022346E07B68012283F83C207B6802228D
:10281C0083F83D207B681B685B68FB607B681B68EA
:10282C009B68BB60FB6823F07003FB603B681B6814
:10283C00FA681343FB607B681B68FA685A607B6814
:10284C001B68164A93420ED07B681B68B3F1804F0D
:10285C0009D07B681B68124A934204D07B681B68C2
:10286C00104A93420CD1BB6823F08003BB603B68D9
:10287C005B68BA681343BB607B681B68BA689A6074
:10288C007B68012283F83D207B68002283F83C2082
:10289C00002318461437BD4680BC7047002C0140FD
:1028AC00000400400008004080B582B000AF7860A2
:1028BC007B68002B01D101233FE07B6893F8393012
:1028CC00DBB2002B06D17B68002283F838207868B5
:1028DC00FEF78EF87B68242283F839207B681B680E
:1028EC00DA687B681B6822F40052DA60786800F0C2
:1028FC0039FB7B681B681A697B681B6822F4904261
:10290C001A617B681B685A697B681B6822F02A0273
:10291C005A617B681B68DA687B681B6842F400525A
:10292C00DA607B680022DA637B68202283F8392026
:10293C007B68202283F83A20002318460837BD46CE
:10294C0080BD80B58AB002AFF860B9603B601346B9
:10295C00FB8000237B61FB6893F83930DBB2202BC2
:10296C007CD1BB68002B02D0FB88002B01D101234A
:10297C0075E0FB6893F83830012B01D102236EE02F
:10298C00FB68012283F83820FB680022DA63FB68BD
:10299C00212283F83920FEF70FF97861FB68FA8859
:1029AC009A84FB68FA88DA84FB689B68B3F5805FCD
:1029BC0008D1FB681B69002B04D10023FB61BB68A9
:1029CC00BB6103E0BB68FB610023BB61FB680022B9
:1029DC0083F838202AE03B6800937B690022802131
:1029EC00F86800F05CF90346002B01D0032336E0B5
:1029FC00FB69002B0BD1BB691B881A46FB681B6853
:102A0C00C2F308025A60BB690233BB6107E0FB6981
:102A1C001A78FB681B685A60FB690133FB61FB6821
:102A2C00DB8C9BB2013B9AB2FB68DA84FB68DB8CD3
:102A3C009BB2002BCFD13B6800937B6900224021D5
:102A4C00F86800F02CF90346002B01D0032306E0B4
:102A5C00FB68202283F83920002300E0022318466B
:102A6C002037BD4680BD000080B588B000AF7860CF
:102A7C007B681B681B68FB617B681B68DB68BB6140
:102A8C007B681B685B697B6100233B610023FB60F7
:102A9C00FB6903F00F033B613B69002B0DD1FB6914
:102AAC0003F02003002B08D0BB6903F02003002B9C
:102ABC0003D0786800F0D5F9D1E03B69002B00F029
:102ACC00B0807B6903F00103002B05D1BB6903F4D3
:102ADC009073002B00F0A580FB6903F00103002B21
:102AEC000AD0BB6903F48073002B05D07B68DB6BC9
:102AFC0043F001027B68DA63FB6903F00403002BEB
:102B0C000AD07B6903F00103002B05D07B68DB6BDB
:102B1C0043F002027B68DA63FB6903F00203002BCB
:102B2C000AD07B6903F00103002B05D07B68DB6BBB
:102B3C0043F004027B68DA63FB6903F00803002BA3
:102B4C000FD0BB6903F02003002B04D17B6903F089
:102B5C000103002B05D07B68DB6B43F008027B681C
:102B6C00DA637B68DB6B002B78D0FB6903F0200306
:102B7C00002B07D0BB6903F02003002B02D0786830
:102B8C0000F06FF97B681B685B6903F04003002B56
:102B9C0014BF01230023DBB2FB607B68DB6B03F00B
:102BAC000803002B02D1FB68002B31D0786800F0B1
:102BBC00C0F87B681B685B6903F04003002B23D0D3
:102BCC007B681B685A697B681B6822F040025A615B
:102BDC007B685B6B002B13D07B685B6B214A5A6361
:102BEC007B685B6B1846FEF721F90346002B16D069
:102BFC007B685B6B5B6B7A68526B104698470EE098
:102C0C00786800F043F80AE0786800F03FF806E0D6
:102C1C00786800F03BF87B680022DA631EE000BFA6
:102C2C001CE0FB6903F08003002B08D0BB6903F0A8
:102C3C008003002B03D0786800F0ACF80FE0FB6940
:102C4C0003F04003002B0AD0BB6903F04003002BB8
:102C5C0005D0786800F0EDF800BF00E000BF203729
:102C6C00BD4680BD792D000880B483B000AF78607C
:102C7C0000BF0C37BD4680BC704780B483B000AF3A
:102C8C00786000BF0C37BD4680BC704780B483B001
:102C9C0000AF786000BF0C37BD4680BC704780B574
:102CAC0084B000AFF860B9603B601346FB712CE058
:102CBC00BB69B3F1FF3F28D0BB69002B07D0FDF7F0
:102CCC007BFF02463B68D31ABA699A421DD2FB6855
:102CDC001B68DA68FB681B6822F4D072DA60FB6848
:102CEC001B685A69FB681B6822F001025A61FB6879
:102CFC00202283F83920FB68202283F83A20FB68D5
:102D0C00002283F8382003230FE0FB681B681A6845
:102D1C00BB681340BA689A420CBF01230023DBB294
:102D2C001A46FB799A42C3D0002318461037BD4689
:102D3C0080BD80B483B000AF78607B681B68DA68B4
:102D4C007B681B6822F49072DA607B681B685A6996
:102D5C007B681B6822F001025A617B68202283F891
:102D6C003A2000BF0C37BD4680BC704780B584B09C
:102D7C0000AF78607B685B6AFB60FB680022DA85D9
:102D8C00FB680022DA84F868FFF780FF00BF103779
:102D9C00BD4680BD80B485B000AF78607B6893F889
:102DAC003930DBB2212B3ED17B689B68B3F5805F59
:102DBC0014D17B681B69002B10D17B681B6AFB60EC
:102DCC00FB681B881A467B681B68C2F308025A60B2
:102DDC007B681B6A9A1C7B681A6208E07B681B6A1A
:102DEC00591C7A6811621A787B681B685A607B6878
:102DFC00DB8C9BB2013B9BB27A681946D184002BC9
:102E0C000FD17B681B68DA687B681B6822F0800234
:102E1C00DA607B681B68DA687B681B6842F04002EA
:102E2C00DA60002300E0022318461437BD4680BC4C
:102E3C00704780B582B000AF78607B681B68DA6839
:102E4C007B681B6822F04002DA607B68202283F8E2
:102E5C0039207868FFF708FF002318460837BD466D
:102E6C0080BD80B584B000AF78607B6893F83A3051
:102E7C00DBB2222B70D17B689B68B3F5805F17D1D6
:102E8C007B681B69002B13D10023FB607B689B6A5A
:102E9C00BB607B681B685B689BB2C3F308039AB288
:102EAC00BB681A807B689B6A9A1C7B689A6226E0D6
:102EBC007B689B6AFB600023BB607B689B68B3F5F7
:102ECC00805F07D07B689B68002B0AD17B681B69ED
:102EDC00002B06D17B681B685B68DAB2FB681A7042
:102EEC0008E07B681B685B68DBB203F07F03DAB237
:102EFC00FB681A707B689B6A5A1C7B689A627B68B9
:102F0C00DB8D9BB2013B9BB27A681946D185002BB5
:102F1C0020D17B681B68DA687B681B6822F0200272
:102F2C00DA607B681B68DA687B681B6822F4807245
:102F3C00DA607B681B685A697B681B6822F00102A7
:102F4C005A617B68202283F83A207868FFF795FE57
:102F5C00002302E0002300E0022318461037BD4690
:102F6C0080BD000080B584B000AF78607B681B68C2
:102F7C001B6923F440517B68DA687B681B680A4341
:102F8C001A617B689A687B681B691A437B685B696A
:102F9C001343BB607B681B68DB6823F4B05323F0DE
:102FAC000C037A681268B9680B43D3607B681B68A2
:102FBC005B6923F440717B689A697B681B680A43E0
:102FCC005A617B681B682C4A934203D1FEF748FD7B
:102FDC00F86002E0FEF730FDF860FA6813469B00DB
:102FEC0013449A001A447B685B689B00B2FBF3F3B2
:102FFC00224AA2FB03235B091901FA6813469B00C2
:10300C0013449A001A447B685B689B00B2FBF3F292
:10301C001A4BA3FB02035B09642000FB03F3D31AD6
:10302C001B013233154AA2FB03235B0903F0F003A7
:10303C001944FA6813469B0013449A001A447B689F
:10304C005B689B00B2FBF3F20C4BA3FB02035B0926
:10305C00642000FB03F3D31A1B013233074AA2FB93
:10306C0003235B0903F00F027B681B680A449A6018
:10307C0000BF1037BD4680BD003801401F85EB51A5
:10308C0080B582B000AF78607B68DA687B681B8A99
:10309C0019461046FEF7C9F87B68DA687B685B8ACC
:1030AC0019461046FEF7C1F800BF0837BD4680BD73
:1030BC0080B582B000AF786039600A4B1A787B68B3
:1030CC009A717B689B79002B05D0074800F092F928
:1030DC003868FFF7D5FF034B00221A7000BF083782
:1030EC00BD4680BD90000020CC40000880B582B069
:1030FC0000AF0346FB80FB88B3F5807F17D105201A
:10310C00FDF764FD4FF480710B48FEF75FF8034642
:10311C00002B0CBF01230023DBB2002B07D04FF494
:10312C0080510648FEF781F8054B01221A7000BF4A
:10313C000837BD4680BD00BF00080140000C0140AF
:10314C009000002000F000B800F02AB8014B18687D
:10315C00704700BF0C00002070B500250C4E0D4CC4
:10316C00A41BA410A54209D100F07CFF00250A4E37
:10317C000A4CA41BA410A54205D170BD56F82530ED
:10318C0098470135EEE756F8253098470135F2E7B8
:10319C009C4100089C4100089C410008A04100088B
:1031AC00024B0146186800F00BB800BF0C00002061
:1031BC0003460244934200D1704703F8011BF9E720
:1031CC0038B50546002943D051F8043C0C1F002BA0
:1031DC00B8BFE41800F0C4FB1E4A1368104633B99C
:1031EC00636014602846BDE8384000F0BABBA342C7
:1031FC000BD921686218934201BF1A685B68521898
:10320C00226063600460EDE713465A680AB1A2427B
:10321C00FAD919685818A0420BD1206801445818E3
:10322C0082421960DED110685268014419605A60FC
:10323C00D8E702D90C232B60D4E7206821188A42E6
:10324C0001BF116852680918216062605C60C9E7AF
:10325C0038BD00BF9400002070B5CD1C25F00305CF
:10326C0008350C2D38BF0C25002D064601DBA94274
:10327C0003D90C233360002070BD00F071FB214A90
:10328C001468214691B9204C23681BB9304600F0D4
:10329C00B9F820602946304600F0B4F8431C24D11C
:1032AC000C233046336000F05CFBE4E70B685B1BDF
:1032BC0018D40B2B0FD90B60CC18CD50304600F026
:1032CC0050FB04F10B00231D20F00700C31AD3D0D0
:1032DC005A42E250D0E74B688C4216BF63601360D1
:1032EC000C46EBE70C464968CCE7C41C24F00304FD
:1032FC00A04205D0211A304600F084F80130CFD01E
:10330C002560DBE794000020980000200FB40A4BE6
:10331C0013B51C6824B1A36913B9204600F032FA26
:10332C0005AB049AA1682046019300F043FB02B060
:10333C00BDE8104004B070470C00002070B50E467C
:10334C00054618B183690BB900F01CFAAB69AC687F
:10335C0013B9284600F016FA234B9C4217D16C681F
:10336C00A3891B071DD52369DBB1013EA36816F8A1
:10337C00011F013BA360E9B9002B2EDA22460A217A
:10338C00284600F04FF8013011D00A2011E0174BFD
:10339C009C4201D1AC68E3E7154B9C4208BFEC683A
:1033AC00DEE72146284600F08FF80028DDD04FF0EC
:1033BC00FF3070BD002B04DAA2699A4206DC0A29A0
:1033CC0004D023685A1C22601970CFE72246284685
:1033DC0000F028F80130C9D1E9E70A2023685A1C0B
:1033EC0022601870E5E700BF28410008484100083A
:1033FC0008410008024B01461868FFF79FBF00BF49
:10340C000C00002038B50023054C05460846236007
:10341C00FDF730F9431C02D1236803B12B6038BD92
:10342C0070010020F8B50E461446054618B18369A4
:10343C000BB900F0A7F9214B9C422AD16C68A36907
:10344C00A360A3891A072ED5236963B32369206867
:10345C00F6B2C01A63693746834204DC214628461B
:10346C0000F026F928BBA3680130013BA360236858
:10347C005A1C22601E706369834204D0A389DB0747
:10348C0019D50A2E17D12146284600F011F990B112
:10349C000FE00B4B9C4201D1AC68D0E7094B9C422E
:1034AC0008BFEC68CBE72146284600F00DF8002851
:1034BC00CCD04FF0FF373846F8BD00BF284100088C
:1034CC004841000808410008324B70B51D6806469B
:1034DC000C4625B1AB6913B9284600F053F92E4BB5
:1034EC009C420FD16C68B4F90C309AB215072CD4ED
:1034FC00D00611D40922326043F04003A3814FF06F
:10350C00FF303EE0254B9C4201D1AC68EBE7244BED
:10351C009C4208BFEC68E6E7510712D5616B41B1DC
:10352C0004F14403994202D03046FFF749FE0023D0
:10353C006363A38923F02403A381002363602369BD
:10354C002360A38943F00803A38123694BB9A389A2
:10355C0003F42073B3F5007F03D02146304600F00E
:10356C00BFF9A28912F001030CD00023A360636998
:10357C005B42A361236953B9B4F90C3013F080009A
:10358C00BAD170BD920758BF6369A360F2E70020FF
:10359C00F7E700BF0C000020284100084841000854
:1035AC00084100088A892DE9F041054610070C46B0
:1035BC0058D44B68002B05DC0B6C002B02DC002074
:1035CC00BDE8F081E66A002EF9D0002312F4805297
:1035DC002F68216A2B6032D0606DA3895A0705D5FC
:1035EC006368C01A636B0BB1236CC01A00230246CC
:1035FC00E66A216A2846B047431CA38906D129688C
:10360C001D2948D8294ACA40D60744D500226260F1
:10361C002269D904226004D5421C01D12B6803B95C
:10362C006065616B2F600029C9D004F14403994295
:10363C0002D02846FFF7C4FD00206063C0E70123D9
:10364C002846B047411CC8D12B68002BC5D01D2B78
:10365C0001D0162B01D12F60B1E7A38943F04003B1
:10366C00A381ADE70F69002FA9D0930718BF0023E2
:10367C000E6808BF4B69A6EB07080F608B60B8F1AA
:10368C00000F9CDD43463A46216A2846A66AB0479D
:10369C00002806DCA38943F04003A3814FF0FF30E0
:1036AC008EE70744A8EB0008E9E700BF01004020C3
:1036BC0038B50B6905460C46DBB118B183690BB9FB
:1036CC0000F060F80C4B9C4209D16C68B4F90C30DA
:1036DC007BB121462846BDE83840FFF763BF074B56
:1036EC009C4201D1AC68F1E7054B9C4208BFEC68E9
:1036FC00ECE7002038BD00BF284100084841000815
:10370C0008410008002310B50446C0E9003383606B
:10371C0081814366C281C0E9043383611946082262
:10372C005C30FFF745FD054B24626362044BA362DA
:10373C00044BE362044B236310BD00BFFD3E000845
:10374C001F3F0008573F00087B3F0008014900F06D
:10375C0085B800BFBD36000870B568254A1E5543B4
:10376C000E4605F17401FFF777FD044640B10021C8
:10377C00C0E900160C30A06005F16802FFF718FDD7
:10378C00204670BD836910B5044633BBC0E91233C3
:10379C000365124B124A1B688262984204BF0123D4
:1037AC00836100F01FF86060204600F01BF8A060F9
:1037BC00204600F017F80022E06004216068FFF753
:1037CC00A1FF01220921A068FFF79CFF0222122110
:1037DC00E068FFF797FF0123A36110BD04410008C7
:1037EC0059370008F8B51B4B07461E68B36913B967
:1037FC003046FFF7C7FF4836D6E90134013B03D505
:10380C00336833B13668F7E7B4F90C506DB16834EE
:10381C00F4E704213846FFF79FFF30600028F1D110
:10382C000C2304463B602046F8BD0B4B6566C4E98F
:10383C000055A560C4E90335C4E90555082229469D
:10384C0004F15C00FFF7B4FCC4E90D55C4E9125552
:10385C00E9E700BF044100080100FFFF2DE9F84330
:10386C0080468946002600F1480414B93046BDE86C
:10387C00F883D4E90175013F01D52468F5E7AB89DC
:10388C00012B07D9B5F90E30013303D02946404638
:10389C00C84706436835EEE770B50E46B1F90E1011
:1038AC0096B0002914461D4607DA00232B60B38915
:1038BC001A0610D44FF480630EE06A4600F07EFBCB
:1038CC000028F2DB019A02F47042A2F500535A422E
:1038DC005A412A60EEE740230020236016B070BDE9
:1038EC008B8973B59D0706460C4607D504F1470333
:1038FC00236023610123636102B070BD01AB6A4692
:10390C00FFF7CAFF009905463046FFF7A5FC48B9FA
:10391C00B4F90C309A05EFD423F0030343F00203FF
:10392C00A381E3E70D4BB362A389206043F08003CE
:10393C00A381009B20616361019B5BB1B4F90E1004
:10394C00304600F04DFB28B1A38923F0030343F06C
:10395C000103A381A3891D43A581CDE75937000835
:10396C0070477047936810B4013B002B936007DAE3
:10397C009469A34201DB0A2902D110BCFFF752BDA6
:10398C001368581C10601970084610BC7047F8B5C5
:10399C0006460F461446D518AC4201D1002007E06C
:1039AC003A4614F8011B3046FFF7DCFF431CF3D1F9
:1039BC00F8BD00002DE9F04F0C469DB017461D4692
:1039CC00064618B183690BB9FFF7DCFE7C4B9C42B1
:1039DC0058D17468A38918075ED52369002B5BD076
:1039EC000023099320238DF8293030234FF0010B4D
:1039FC008DF82A300395B846454615F8013B0BB1B6
:103A0C00252B54D1B8EB070A0BD053463A46214626
:103A1C003046FFF7BCFF013000F0C280099B5344D5
:103A2C00099398F80030002B00F0BA8000234FF077
:103A3C00FF32CDE90523049307938DF853301A9385
:103A4C00A846052218F8011B5E4800F0EBFA049B0F
:103A5C0078BBD90644BF20228DF853201A0744BFE7
:103A6C002B228DF853202A782A2A2AD0A846002007
:103A7C000A25079A414611F8013B303B092B69D9BD
:103A8C0060B324E0504B9C4201D1B468A2E74F4B89
:103A9C009C4208BFF4689DE721463046FFF714FDB1
:103AAC0000289DD04FF0FF301DB0BDE8F08FA84628
:103ABC00A2E7444A4546801A0BFA00F018430490DA
:103ACC00BEE7039A111D12680391002A01DB0792CD
:103ADC0004E0524243F002030792049398F800303A
:103AEC002E2B0ED198F801302A2B38D1039B08F1DC
:103AFC0002081A1D1B680392002BB8BF4FF0FF334E
:103B0C000593334D032298F80010284600F08AFAEA
:103B1C0040B14023401B03FA00F0049B08F101085C
:103B2C000343049398F8001006222A4808F1010771
:103B3C008DF8281000F076FA002837D0264B1BBBE6
:103B4C00039B073323F0070308330393099B4B4470
:103B5C00099350E705FB0232012088468AE70023CF
:103B6C000A25194608F101080593404610F8012B67
:103B7C00303A092A03D9002BC3D00591C1E705FBC4
:103B8C00012101238046F0E703AB00932246134B3F
:103B9C0004A93046AFF30080B0F1FF3F8146D5D188
:103BAC00A3895B063FF57EAF09987DE703AB0093D5
:103BBC0022460A4B04A9304600F088F8ECE700BF17
:103BCC0028410008684100084841000808410008E5
:103BDC006E41000872410008000000009B3900088B
:103BEC002DE9F04791461F468A680B6906469342B9
:103BFC00B8BF1346C9F8003091F843200C46DDF8E5
:103C0C00208012B10133C9F800302368990642BFF5
:103C1C00D9F800300233C9F80030256815F00605D4
:103C2C0007D104F1190AE368D9F800209B1AAB42BA
:103C3C0029DC94F843302268003318BF0123920624
:103C4C002ED404F1430239463046C047013021D00E
:103C5C002368E56803F00603042B18BF0025D9F888
:103C6C0000204FF0000908BFAD1AA368226908BFF5
:103C7C0025EAE5759342C4BF9B1AED181A344D45DD
:103C8C001AD1002008E00123524639463046C0477D
:103C9C00013003D14FF0FF30BDE8F0870135C2E7AA
:103CAC003020E11881F843005A1C94F84510224446
:103CBC00023382F84310C4E70123224639463046CA
:103CCC00C0470130E6D009F10109D8E72DE9F043EE
:103CDC0001F1430C0C46097E85B06E291746064649
:103CEC0098460C9A00F0B38022D8632936D00AD8B3
:103CFC00002900F0B980582900F0838004F14205B6
:103D0C0084F8421032E0642901D06929F6D1206888
:103D1C001368050603F104012AD51B681160002BFA
:103D2C0003DA2D225B4284F843206F480A2239E0E3
:103D3C00732900F09D8008D86F2920D07029DDD11F
:103D4C00236843F02003236003E0752917D07829FA
:103D5C00D4D17823654884F8453055E0136804F1D4
:103D6C004205191D1B68116084F8423001238CE058
:103D7C001B6810F0400F116018BF1BB2CFE713681F
:103D8C002568181D1060280601D51B6802E068061E
:103D9C00FBD51B886F2914BF0A2208225248002128
:103DAC0084F843106568002DA560C0F295802168E9
:103DBC0021F004012160002B3DD1002D40F08E80BC
:103DCC006546082A0BD12368DB0708D5236962688E
:103DDC009A42DEBF302305F8013C05F1FF35ACEB10
:103DEC0005032361CDF800803B4603AA21463046EB
:103DFC00FFF7F6FE01304DD14FF0FF3005B0BDE8B6
:103E0C00F083394884F84510136821681D1D1B6820
:103E1C0015600A060BD5CA0744BF41F0200121608A
:103E2C001BB9226822F0200222601022B7E74D064F
:103E3C0048BF9BB2EFE76546B3FBF2F102FB1133CF
:103E4C00C35C05F8013D0B460029F5D1B9E71368B1
:103E5C002568181D6169106028061B6801D519605A
:103E6C0002E06A06FBD51980002365462361B9E799
:103E7C001368191D11601D6862680021284600F046
:103E8C00D1F808B1401B606063682361002384F89B
:103E9C004330A7E723692A4639463046C0470130EC
:103EAC00AAD023689B0713D4E068039B9842B8BF41
:103EBC001846A3E701234A4639463046C04701302D
:103ECC009AD00135E368039A9B1AAB42F2DCEBE71C
:103EDC00002504F11909F5E7002BACD1037804F1A6
:103EEC00420584F842306CE7794100088A410008A9
:103EFC0010B50C46B1F90E1000F0A2F80028ABBFBB
:103F0C00636DA3891B1823F48053ACBF6365A38135
:103F1C0010BD2DE9F0411F468B890546DB050C468B
:103F2C00164605D502230022B1F90E1000F068F8F0
:103F3C00A389324623F48053A381B4F90E103B4677
:103F4C002846BDE8F04100F017B810B50C46B1F9A1
:103F5C000E1000F055F8431CA38915BF606523F4BF
:103F6C00805343F48053A38118BFA38110BDB1F9D2
:103F7C000E1000F013B8000038B50546084611467F
:103F8C000022054C22601A46FCF727FB431C02D189
:103F9C00236803B12B6038BD7001002038B50023B5
:103FAC00054C054608462360FCF733FB431C02D145
:103FBC00236803B12B6038BD7001002038B5002395
:103FCC00064C0546084611462360FCF72DFB431CA6
:103FDC0002D1236803B12B6038BD00BF70010020F3
:103FEC0038B50023054C054608462360FCF72BFB2F
:103FFC00431C02D1236803B12B6038BD7001002033
:10400C0038B50546084611460022054C22601A4672
:10401C00FCF723FB431C02D1236803B12B6038BD92
:10402C007001002010B5C9B202449042034601D180
:10403C00002303E01C7801308C42F6D1184610BDE9
:10404C0038B50546084611460022054C22601A4632
:10405C00FCF7A6FA431C02D1236803B12B6038BDD0
:10406C0070010020F8B500BFF8BC08BC9E46704734
:0C407C00F8B500BFF8BC08BC9E467047B9
:1040880054494D34E5AE9AE697B6E599A8E7BC964B
:10409800E7A081E599A8E6A8A1E5BC8FE68D95E89B
:1040A8008EB7E88489E586B2203D202564200A0081
:1040B80002030405060708090A0B0C0D0E0F101061
:1040C80001020000627574746F6E20697320646F5A
:1040D800776E0D0000000000000000006D0200086F
:1040E8008D02000800000000000000000102030427
:1040F8000607080900000000010203041000002060
:1041080000000000000000000000000000000000A7
:104118000000000000000000000000000000000097
:104128000000000000000000000000000000000087
:104138000000000000000000000000000000000077
:104148000000000000000000000000000000000067
:104158000000000000000000000000000000000057
:10416800232D302B2000686C4C0065666745464758
:1041780000303132333435363738394142434445DB
:10418800460030313233343536373839616263644A
:044198006566000058
:04419C0031010008E5
:0441A0000D01000805
:1041A4000024F400100000000100000010000020B2
:1041B40000000000284100084841000808410008A8
:1041C40000000000000000000000000000000000EB
:1041D40000000000000000000000000000000000DB
:1041E40000000000000000000000000000000000CB
:1041F40000000000000000000000000000000000BB
:1042040000000000000000000000000000000000AA
:0400000508000AC91C
:00000001FF
